:020000003528A1
:100008007E1480310B1D33280B110630200095001B
:1000180063086404031914280130E3020030E43B48
:100028000130EC020030ED3B6C086D04031D3328F1
:10003800E830EC000330ED000130EA020130E1075E
:100048000030E23D690803192B280130E9025F08F6
:100058006004031933280130DF020030E03B7E10D2
:10006800090036286324EE006424EF00033084007E
:1000780084308500A0308600003087001E30572469
:100088002E308400833085002030860001308700C0
:10009800443057244D308400003085001F305D24E3
:1000A8007E1020005728E323E8302000EC000330BE
:1000B800ED008D1F64280530DF000030E0001421BA
:1000C8002000E501142120003708CC003608CB00B9
:1000D80000304C02643003194B02031C75280330AE
:1000E800E5004B084C0403197C2822000D1704294D
:1000F80022000D1304292522DE2205302000EA0003
:10010800E101E201EB010230E500E9016628013076
:10011800CA004A08EB07F001F00A6B08523E860055
:100128008701010872232000E801E80A9630E300FD
:100138000030E40063086404031D9E28E501E50A15
:1001480066286A08031DB6288D1BAC280230AD2826
:100158000530EA0006306B020318B5280230E500C6
:10016800B628E8010A3062028C3003196102031CC8
:10017800C92806306B020318C528E501E101E20130
:10018800C9288C30E1000A30E2006908031D66289E
:100198000A30E9006628F0016B08523E86008701A4
:1001A8000108722320006B08FF3EE6000130EB02D5
:1001B8006B08031964286803031DFD28E80105304E
:1001C80066020318FD286608533E86008701010869
:1001D800E7006608533E860087016608543E84009F
:1001E8008501000881006608543E8600870167087B
:1001F80081008D1B0129053002297830EA00A228E8
:1002080020006508003A03197F28013A0319A52838
:10021800033A03198B28013A0319CF286628352891
:1002280000302000C3000030C2000030C1000030A0
:10023800C000C401C50100302000AB000F30AA0087
:100248004230A9004030A800FC30B8000330B900A3
:10025800BE30BA00FD30BB0000303C2470082000DE
:10026800BC007108BD00BE01BF013F08A3003E08E5
:10027800A2003D08A1003C08A0000030A700013002
:10028800A6002030A500FE30A400B32320002008DB
:10029800B8072108B93D2208BA3D2308BB3D3B08F1
:1002A800AF003A08AE003908AD003808AC00A32109
:1002B80020002808C6004608F000F101F01BF103F1
:1002C8004608F200F301F21BF30321247008200012
:1002D800B8007108B9000030B91BFF30BA00BB0084
:1002E8003808C0073908C13D3A08C23D3B08C33D3C
:1002F8000130C4070030C53D4508803AB800813058
:100308003802031D8929F4304402031C1F290030D8
:10031800F3000030F2000130F100F430F00020006A
:100328004308F7004208F6004108F5004008F400C9
:100338008C2271082000B7007008B6000800200061
:10034800B101AB1FB429A809A909AA09AB09A80AD0
:100358000319A90A0319AA0A0319AB0AB101B10AB8
:10036800AF1FC529AC09AD09AE09AF09AC0A03191D
:10037800AD0A0319AE0A0319AF0A0130FB007B0866
:10038800B1060030B5000030B4000030B3000030D2
:10039800B2002B082A042904280403190E2AB001E4
:1003A800B00AAB1BE3290130A835A90DAA0DAB0D86
:1003B800890BD8290130FB007B08B007D52901300B
:1003C800B235B30DB40DB50D890BE4292B082F02F6
:1003D800031DF8292A082E02031DF82929082D02D1
:1003E800031DF82928082C02031C032A2808AC023C
:1003F8002908AD3B2A08AE3B2B08AF3B321401302D
:10040800AB36AA0CA90CA80C890B042A0130B0023F
:10041800031DE329310803191C2AB209B309B409D9
:10042800B509B20A0319B30A0319B40A0319B50ABC
:100438003508AB003408AA003308A9003208A80020
:1004480008002000C801F00148087223200048086D
:10045800533E860087014808810048084D3E8600C3
:10046800870181010130C7004708C80706304802E4
:10047800031C272AC901F001F00A49087223200049
:100488008D1B4A2AD030E30007304D2A8830E3001C
:100498001330E4006308640403196C2A4908593EC0
:1004A8008600870114212000360881004908593E3A
:1004B8008600870164300102031C4E2A1130640251
:1004C80094300319630203184E2AE301E4014E2A0B
:1004D800F0014908722320004908593E8600870127
:1004E80064300102031C832A4908593E86008701AB
:1004F800810149084D3E860087018101810A01304A
:10050800C7004708C90706304902031808003F2AF0
:100518000030FC000030FB000030FA000030F90029
:1005280073087204710470040319D52AFD01FD0AC9
:10053800F31BAA2A0130F035F10DF20DF30D890BEA
:100548009F2A0130F8007808FD079C2A0130F93508
:10055800FA0DFB0DFC0D890BAB2A73087702031DFE
:10056800BF2A72087602031DBF2A71087502031D8F
:10057800BF2A70087402031CCA2A7008F4027108A2
:10058800F53B7208F63B7308F73B79140130F336F4
:10059800F20CF10CF00C890BCB2A0130FD02031D83
:1005A800AA2A7C08F3007B08F2007A08F10079088F
:1005B800F0000800F4017408013EF50075080319FD
:1005C800252B7508533E860087010108F20075083F
:1005D800523E860087010108F30073084D3E8600ED
:1005E800870172084D3E8400850100080106031941
:1005F800032B73084D3E860087010108122B7308F0
:10060800593E860087017208593E8400850100081A
:1006180001020318112B0130122B0030F100710870
:100628000319222B7508533E860087017308810041
:100638007508523E86008701720881000130F50274
:10064800E22A0130F0007008F4070530740203183C
:100658000800DF2A543449344D34453452343A348E
:100668002F344434453453344C34493447344134BA
:1006780044344F340034543449344D3445345234BE
:100688003A342F3431342F344834003400340034B1
:100698000034003400340034543449344D34453483
:1006A80052343A342F3432342F344834003400343E
:1006B80000340034003400340034543449344D34A8
:1006C800453452343A342F3433342F3448340034D8
:1006D800003400340034003400340034F1009E2B20
:1006E800700C2200031C0D1003180D140800700C68
:1006F8002200031C0D1103180D150800700C2200B0
:10070800031C8D1103188D150800700C2200031CA2
:100718008D1203188D160800700C2200031C0C1390
:1007280003180C170800700C2200031C8C13031804
:100738008C1708007108003A0319742B013A031941
:100748007B2B033A0319822B013A0319892B073AA9
:100758000319902B013A0319972BB22B080000308C
:10076800FA000030F9000030F8000030F7002000EF
:10077800201CC62B2408F7072508F83D2608F93D54
:100788002708FA3D0130A435A50DA60DA70D890B44
:10079800C72B0130A336A20CA10CA00C890BCE2BC1
:1007A8002308220421042004031DBB2B7A08A3007C
:1007B8007908A2007808A1007708A00008002100A5
:1007C8001908873970389900033099040F308C0064
:1007D800013023008C0020008C01803021008D0026
:1007E80023008D0120008D01E03021009E000230A1
:1007F8009500803024008D00E0308B0008003C34E8
:100808002F342F342F343C342F342F342F343C34AE
:100818002F342F342F343C342F342F342F343C349E
:100828002F342F342F343C34003456342E343134A2
:100838002E3432342E3430340034F401F501701C77
:10084800292C7208F4077308F53D0130F235F30DD1
:10085800890B2A2C0130F136F00C890B2F2C7008EB
:100868007104031D232C7508F1007408F0000800BA
:10087800F600F3017608F200F20DF20D21001D08D2
:100888007206833972069D001D149C019B019D14FC
:100898009D184C2C1C08F5001B08F4007508F10085
:1008A8007408F0000800FE0012001E00FE0B582C11
:1008B8000034640080010131890B5E2C00346434FB
:0608C80000343C343E3414
:020000040001F9
:08000000FF3FFF3FFF3FFF3F00
:04000E00E40FFF3EBE
:00000001FF
