:020000003528A1
:100008007E1480310B1D33280B110630200095001B
:1000180059085A04031914280130D9020030DA3B70
:100028000130E8020030E93B68086904031D332801
:10003800E830E8000330E9000130E0020130D7077A
:100048000030D83D5F0803192B280130DF0255081E
:100058005604031933280130D5020030D63B7E10F0
:10006800090036283F3084008430850062308600DD
:100078000030870006304524EB308400833085004B
:10008800A0308600003087001E3045242A308400C6
:1000980083308500203086000130870044304524B5
:1000A8004D3084000030850015304B247E10200030
:1000B8005D28CB23E8302000E8000330E9008D1FDD
:1000C8006A280530D5000030D60010212000DB0159
:1000D800102120003708CC003608CB0000304C0235
:1000E800643003194B02031C01290330DB0001298A
:1000F8002122DA2205302000E000D701D801E101F1
:100108000230DB00DF016C280130CA004A08E10731
:10011800F001F00A6108613E8600870101089E230C
:100128002000DE01DE0A9630D9000030DA005908D6
:100138005A04031D9B28DB01DB0A6C286008031D99
:10014800B3288D1BA9280230AA280530E000043006
:1001580061020318B2280230DB00B328DE010A303E
:1001680058028C3003195702031CC6280430610258
:100178000318C228DB01D701D801C6288C30D70064
:100188000A30D8005F08031D6C280A30DF006C288D
:10019800F0016108613E8600870101089E23200066
:1001A8006108FF3EDC000130E102610803196A289A
:1001B8005E03031DFA28DE0103305C020318FA28E7
:1001C8005C08623E860087010108DD005C08623E2B
:1001D800860087015C08633E840085010008810071
:1001E8005C08633E860087015D0881008D1BFE2840
:1001F8000530FF287830E0009F285B08003A031993
:100208007C28013A0319A228033A03198828013ADD
:100218000319CC286C28352800302000C300003092
:10022800C2000030C1000030C000C401C501003068
:100238002000AB000F30AA004230A9004030A800CF
:10024800FC30B8000330B900BE30BA00FD30BB0046
:100258000030242470082000BC007108BD00BE01D5
:10026800BF013F08A3003E08A2003D08A1003C08CA
:10027800A0000030A7000130A6002030A500FE3005
:10028800A4006E2320002008B8072108B93D2208E1
:10029800BA3D2308BB3D3B08AF003A08AE00390819
:1002A800AD003808AC009F2120002808C600460889
:1002B800F000F101F01BF1034608F200F301F21B14
:1002C800F303092470082000B8007108B900003051
:1002D800B91BFF30BA00BB003808C0073908C13D58
:1002E8003A08C23D3B08C33D0130C4070030C53D54
:1002F8004508803AB80081303802031D8529F4305A
:100308004402031C1B290030F3000030F2000130C6
:10031800F100F430F00020004308F7004208F6002E
:100328004108F5004008F400882271082000B70051
:100338007008B60008002000B101AB1FB029A80959
:10034800A909AA09AB09A80A0319A90A0319AA0A3B
:100358000319AB0AB101B10AAF1FC129AC09AD0934
:10036800AE09AF09AC0A0319AD0A0319AE0A03199D
:10037800AF0A0130FB007B08B1060030B500003041
:10038800B4000030B3000030B2002B082A0429045E
:10039800280403190A2AB001B00AAB1BDF2901306F
:1003A800A835A90DAA0DAB0D890BD4290130FB0086
:1003B8007B08B007D1290130B235B30DB40DB50DA6
:1003C800890BE0292B082F02031DF4292A082E0285
:1003D800031DF42929082D02031DF42928082C02DD
:1003E800031CFF292808AC022908AD3B2A08AE3BAC
:1003F8002B08AF3B32140130AB36AA0CA90CA80C61
:10040800890B002A0130B002031DDF2931080319C6
:10041800182AB209B309B409B509B20A0319B30A0B
:100428000319B40A0319B50A3508AB003408AA0041
:100438003308A9003208A80008002000C801F0010C
:1004480048089E2320004808623E86008701480825
:10045800810048084D3E8600870181010130C700B0
:100468004708C80704304802031C232AC901F001C1
:10047800F00A49089E2320008D1B462AD030D90057
:100488000730492A9830D9003A30DA0059085A0416
:100498000319682A4908513E860087011021200067
:1004A800360881004908513E860087016430010200
:1004B800031C4A2A39305A029E300319590203187C
:1004C8004A2AD901DA014A2AF00149089E23200064
:1004D8004908513E8600870164300102031C7F2AC7
:1004E8004908513E86008701810149084D3E860032
:1004F80087018101810A0130C7004708C907043014
:100508004902031808003B2A0030FC000030FB00B9
:100518000030FA000030F9007308720471047004A6
:100528000319D12AFD01FD0AF31BA62A0130F03573
:10053800F10DF20DF30D890B9B2A0130F8007808B4
:10054800FD07982A0130F935FA0DFB0DFC0D890BD2
:10055800A72A73087702031DBB2A72087602031DB7
:10056800BB2A71087502031DBB2A70087402031C9C
:10057800C62A7008F4027108F53B7208F63B730846
:10058800F73B79140130F336F20CF10CF00C890BBF
:10059800C72A0130FD02031DA62A7C08F3007B0848
:1005A800F2007A08F1007908F0000800F4017408F4
:1005B800013EF50075080319212B7508623E860077
:1005C80087010108F2007508613E8600870101086D
:1005D800F30073084D3E8600870172084D3E840083
:1005E8008501000801060319FF2A73084D3E86009D
:1005F800870101080E2B7308513E86008701720897
:10060800513E840085010008010203180D2B0130BA
:100618000E2B0030F100710803191E2B7508623E7D
:1006280086008701730881007508613E860087018E
:10063800720881000130F502DE2A0130F0007008EE
:10064800F4070330740203180800DB2A54344934D1
:100658004D34453452343A342F34443445345334C9
:100668004C3449344734413444344F3400345434DE
:1006780049344D34453452343A342F3431342F34DC
:10068800483400340034003400340034003400347A
:10069800543449344D34453452343A342F34323496
:1006A8002F3448340034003400340034003400342B
:1006B8000034543449344D34453452343A342F34A8
:1006C80033342F34483400340034003400340034D8
:1006D800003400340030FA000030F9000030F8002F
:1006E8000030F7002000201C812B2408F70725087C
:1006F800F83D2608F93D2708FA3D0130A435A50D37
:10070800A60DA70D890B822B0130A336A20CA10CD4
:10071800A00C890B892B2308220421042004031D23
:10072800762B7A08A3007908A2007808A100770838
:10073800A0000800F100BC2B700C2200031C8D10D7
:1007480003188D140800700C2200031C0D110318E7
:100758000D150800700C2200031C8D1103188D154F
:100768000800700C2200031C0D1203180D16080057
:100778007108003A0319A02B013A0319A72B033A71
:100788000319AE2B013A0319B52BCA2B0800210017
:100798001908873970389900033099040F308C0094
:1007A800013023008C0020008C01803021008D0056
:1007B80023008D0120008D01E03021009E000230D1
:1007C8009500803024008D00E0308B0008003C3418
:1007D8002F342F342F343C342F342F342F343C34DF
:1007E8002F342F342F343C342F342F342F343C34CF
:1007F8002F342F342F343C34003456342E343134D3
:100808002E3432342E3430340034F401F501701CA7
:10081800112C7208F4077308F53D0130F235F30D19
:10082800890B122C0130F136F00C890B172C70084B
:100838007104031D0B2C7508F1007408F000080002
:10084800F600F3017608F200F20DF20D21001D0802
:100858007206833972069D001D149C019B019D142C
:100868009D18342C1C08F5001B08F4007508F100CD
:100878007408F0000800003401340234033464348E
:100888000034FE0012001E00FE0B462C00346400EB
:0E08980080010131890B4C2C00343C343E347D
:020000040001F9
:08000000FF3FFF3FFF3FFF3F00
:04000E00E40FFF3EBE
:00000001FF
